{
  "_format": "hh-sol-artifact-1",
  "contractName": "HabitApp",
  "sourceName": "contracts/HabitApp.sol",
  "abi": [
    {
      "inputs": [
        {
          "components": [
            {
              "internalType": "bytes32",
              "name": "name",
              "type": "bytes32"
            },
            {
              "internalType": "uint256",
              "name": "duration",
              "type": "uint256"
            },
            {
              "internalType": "uint256",
              "name": "tokenLockInRequired",
              "type": "uint256"
            }
          ],
          "internalType": "struct HabitApp.Campaign[]",
          "name": "_campaigns",
          "type": "tuple[]"
        }
      ],
      "stateMutability": "nonpayable",
      "type": "constructor"
    },
    {
      "anonymous": false,
      "inputs": [
        {
          "indexed": true,
          "internalType": "address",
          "name": "previousOwner",
          "type": "address"
        },
        {
          "indexed": true,
          "internalType": "address",
          "name": "newOwner",
          "type": "address"
        }
      ],
      "name": "OwnershipTransferred",
      "type": "event"
    },
    {
      "inputs": [
        {
          "internalType": "address",
          "name": "",
          "type": "address"
        }
      ],
      "name": "addressToCampaign",
      "outputs": [
        {
          "components": [
            {
              "internalType": "bytes32",
              "name": "name",
              "type": "bytes32"
            },
            {
              "internalType": "uint256",
              "name": "duration",
              "type": "uint256"
            },
            {
              "internalType": "uint256",
              "name": "tokenLockInRequired",
              "type": "uint256"
            }
          ],
          "internalType": "struct HabitApp.Campaign",
          "name": "campaign",
          "type": "tuple"
        },
        {
          "internalType": "uint256",
          "name": "noOfDaysLeft",
          "type": "uint256"
        },
        {
          "internalType": "uint256",
          "name": "fundsLocked",
          "type": "uint256"
        },
        {
          "internalType": "uint256",
          "name": "fundsClaimable",
          "type": "uint256"
        },
        {
          "internalType": "uint256",
          "name": "lastMarkedDoneAt",
          "type": "uint256"
        }
      ],
      "stateMutability": "view",
      "type": "function"
    },
    {
      "inputs": [
        {
          "internalType": "uint256",
          "name": "",
          "type": "uint256"
        }
      ],
      "name": "campaigns",
      "outputs": [
        {
          "internalType": "bytes32",
          "name": "name",
          "type": "bytes32"
        },
        {
          "internalType": "uint256",
          "name": "duration",
          "type": "uint256"
        },
        {
          "internalType": "uint256",
          "name": "tokenLockInRequired",
          "type": "uint256"
        }
      ],
      "stateMutability": "view",
      "type": "function"
    },
    {
      "inputs": [
        {
          "components": [
            {
              "internalType": "bytes32",
              "name": "name",
              "type": "bytes32"
            },
            {
              "internalType": "uint256",
              "name": "duration",
              "type": "uint256"
            },
            {
              "internalType": "uint256",
              "name": "tokenLockInRequired",
              "type": "uint256"
            }
          ],
          "internalType": "struct HabitApp.Campaign",
          "name": "_campaign",
          "type": "tuple"
        }
      ],
      "name": "createCampaign",
      "outputs": [],
      "stateMutability": "nonpayable",
      "type": "function"
    },
    {
      "inputs": [
        {
          "internalType": "uint256",
          "name": "campaignIndex",
          "type": "uint256"
        },
        {
          "internalType": "string[]",
          "name": "habits",
          "type": "string[]"
        }
      ],
      "name": "createUserCampaign",
      "outputs": [],
      "stateMutability": "payable",
      "type": "function"
    },
    {
      "inputs": [],
      "name": "getCampaigns",
      "outputs": [
        {
          "components": [
            {
              "internalType": "bytes32",
              "name": "name",
              "type": "bytes32"
            },
            {
              "internalType": "uint256",
              "name": "duration",
              "type": "uint256"
            },
            {
              "internalType": "uint256",
              "name": "tokenLockInRequired",
              "type": "uint256"
            }
          ],
          "internalType": "struct HabitApp.Campaign[]",
          "name": "",
          "type": "tuple[]"
        }
      ],
      "stateMutability": "view",
      "type": "function"
    },
    {
      "inputs": [
        {
          "internalType": "address",
          "name": "userAddress",
          "type": "address"
        }
      ],
      "name": "getUserCampaign",
      "outputs": [
        {
          "components": [
            {
              "components": [
                {
                  "internalType": "bytes32",
                  "name": "name",
                  "type": "bytes32"
                },
                {
                  "internalType": "uint256",
                  "name": "duration",
                  "type": "uint256"
                },
                {
                  "internalType": "uint256",
                  "name": "tokenLockInRequired",
                  "type": "uint256"
                }
              ],
              "internalType": "struct HabitApp.Campaign",
              "name": "campaign",
              "type": "tuple"
            },
            {
              "internalType": "uint256",
              "name": "noOfDaysLeft",
              "type": "uint256"
            },
            {
              "internalType": "string[]",
              "name": "habits",
              "type": "string[]"
            },
            {
              "internalType": "uint256",
              "name": "fundsLocked",
              "type": "uint256"
            },
            {
              "internalType": "uint256",
              "name": "fundsClaimable",
              "type": "uint256"
            },
            {
              "internalType": "uint256",
              "name": "lastMarkedDoneAt",
              "type": "uint256"
            }
          ],
          "internalType": "struct HabitApp.UserCampaign",
          "name": "",
          "type": "tuple"
        }
      ],
      "stateMutability": "view",
      "type": "function"
    },
    {
      "inputs": [
        {
          "internalType": "uint256",
          "name": "noOfHabitsDoneToday",
          "type": "uint256"
        }
      ],
      "name": "markHabitsDoneToday",
      "outputs": [],
      "stateMutability": "nonpayable",
      "type": "function"
    },
    {
      "inputs": [],
      "name": "owner",
      "outputs": [
        {
          "internalType": "address",
          "name": "",
          "type": "address"
        }
      ],
      "stateMutability": "view",
      "type": "function"
    },
    {
      "inputs": [
        {
          "internalType": "uint256",
          "name": "index",
          "type": "uint256"
        }
      ],
      "name": "removeCampaign",
      "outputs": [],
      "stateMutability": "nonpayable",
      "type": "function"
    },
    {
      "inputs": [],
      "name": "renounceOwnership",
      "outputs": [],
      "stateMutability": "nonpayable",
      "type": "function"
    },
    {
      "inputs": [
        {
          "internalType": "address",
          "name": "newOwner",
          "type": "address"
        }
      ],
      "name": "transferOwnership",
      "outputs": [],
      "stateMutability": "nonpayable",
      "type": "function"
    },
    {
      "inputs": [],
      "name": "withdrawClaimableFunds",
      "outputs": [],
      "stateMutability": "nonpayable",
      "type": "function"
    },
    {
      "inputs": [],
      "name": "withdrawDeductions",
      "outputs": [],
      "stateMutability": "nonpayable",
      "type": "function"
    }
  ],
  "bytecode": "0x60806040523480156200001157600080fd5b5060405162002c9d38038062002c9d83398181016040528101906200003791906200042a565b620000576200004b620000eb60201b60201c565b620000f360201b60201c565b60005b8151811015620000e35760028282815181106200007c576200007b6200047b565b5b6020026020010151908060018154018082558091505060019003906000526020600020906003020160009091909190915060008201518160000155602082015181600101556040820151816002015550508080620000da90620004d9565b9150506200005a565b505062000526565b600033905090565b60008060009054906101000a900473ffffffffffffffffffffffffffffffffffffffff169050816000806101000a81548173ffffffffffffffffffffffffffffffffffffffff021916908373ffffffffffffffffffffffffffffffffffffffff1602179055508173ffffffffffffffffffffffffffffffffffffffff168173ffffffffffffffffffffffffffffffffffffffff167f8be0079c531659141344cd1fd0a4f28419497f9722a3daafe3b4186f6b6457e060405160405180910390a35050565b6000604051905090565b600080fd5b600080fd5b600080fd5b6000601f19601f8301169050919050565b7f4e487b7100000000000000000000000000000000000000000000000000000000600052604160045260246000fd5b6200021b82620001d0565b810181811067ffffffffffffffff821117156200023d576200023c620001e1565b5b80604052505050565b600062000252620001b7565b905062000260828262000210565b919050565b600067ffffffffffffffff821115620002835762000282620001e1565b5b602082029050602081019050919050565b600080fd5b600080fd5b6000819050919050565b620002b3816200029e565b8114620002bf57600080fd5b50565b600081519050620002d381620002a8565b92915050565b6000819050919050565b620002ee81620002d9565b8114620002fa57600080fd5b50565b6000815190506200030e81620002e3565b92915050565b6000606082840312156200032d576200032c62000299565b5b62000339606062000246565b905060006200034b84828501620002c2565b60008301525060206200036184828501620002fd565b60208301525060406200037784828501620002fd565b60408301525092915050565b60006200039a620003948462000265565b62000246565b90508083825260208201905060608402830185811115620003c057620003bf62000294565b5b835b81811015620003ed5780620003d8888262000314565b845260208401935050606081019050620003c2565b5050509392505050565b600082601f8301126200040f576200040e620001cb565b5b81516200042184826020860162000383565b91505092915050565b600060208284031215620004435762000442620001c1565b5b600082015167ffffffffffffffff811115620004645762000463620001c6565b5b6200047284828501620003f7565b91505092915050565b7f4e487b7100000000000000000000000000000000000000000000000000000000600052603260045260246000fd5b7f4e487b7100000000000000000000000000000000000000000000000000000000600052601160045260246000fd5b6000620004e682620002d9565b91507fffffffffffffffffffffffffffffffffffffffffffffffffffffffffffffffff82036200051b576200051a620004aa565b5b600182019050919050565b61276780620005366000396000f3fe6080604052600436106100c25760003560e01c80638da5cb5b1161007f578063a6b0363311610059578063a6b036331461025d578063be83f77014610288578063e5dab4461461029f578063f2fde38b146102b6576100c2565b80638da5cb5b146101cc57806394fcebe3146101f75780639c91d45814610220576100c2565b80630574521d146100c7578063141961bc146100e3578063195e9a34146101225780631f0b777314610163578063372bfd931461018c578063715018a6146101b5575b600080fd5b6100e160048036038101906100dc91906118a7565b6102df565b005b3480156100ef57600080fd5b5061010a60048036038101906101059190611903565b6104f9565b60405161011993929190611958565b60405180910390f35b34801561012e57600080fd5b50610149600480360381019061014491906119ed565b610533565b60405161015a959493929190611a7a565b60405180910390f35b34801561016f57600080fd5b5061018a60048036038101906101859190611b62565b610591565b005b34801561019857600080fd5b506101b360048036038101906101ae9190611903565b6105e0565b005b3480156101c157600080fd5b506101ca61069c565b005b3480156101d857600080fd5b506101e16106b0565b6040516101ee9190611b9e565b60405180910390f35b34801561020357600080fd5b5061021e60048036038101906102199190611903565b6106d9565b005b34801561022c57600080fd5b50610247600480360381019061024291906119ed565b610e95565b6040516102549190611dc6565b60405180910390f35b34801561026957600080fd5b50610272611021565b60405161027f9190611e97565b60405180910390f35b34801561029457600080fd5b5061029d61109e565b005b3480156102ab57600080fd5b506102b4611262565b005b3480156102c257600080fd5b506102dd60048036038101906102d891906119ed565b61132a565b005b6000600283815481106102f5576102f4611eb9565b5b90600052602060002090600302016040518060600160405290816000820154815260200160018201548152602001600282015481525050905080604001513414610374576040517f08c379a000000000000000000000000000000000000000000000000000000000815260040161036b90611f45565b60405180910390fd5b6040518060c001604052806002858154811061039357610392611eb9565b5b906000526020600020906003020160405180606001604052908160008201548152602001600182015481526020016002820154815250508152602001600285815481106103e3576103e2611eb9565b5b90600052602060002090600302016001015481526020018381526020016002858154811061041457610413611eb9565b5b90600052602060002090600302016002015481526020016000815260200162015180426104419190611fc3565b815250600360003373ffffffffffffffffffffffffffffffffffffffff1673ffffffffffffffffffffffffffffffffffffffff16815260200190815260200160002060008201518160000160008201518160000155602082015181600101556040820151816002015550506020820151816003015560408201518160040190805190602001906104d29291906114f7565b50606082015181600501556080820151816006015560a08201518160070155905050505050565b6002818154811061050957600080fd5b90600052602060002090600302016000915090508060000154908060010154908060020154905083565b6003602052806000526040600020600091509050806000016040518060600160405290816000820154815260200160018201548152602001600282015481525050908060030154908060050154908060060154908060070154905085565b6002819080600181540180825580915050600190039060005260206000209060030201600090919091909150600082015181600001556020820151816001015560408201518160020155505050565b600260016002805490506105f49190611ff4565b8154811061060557610604611eb9565b5b90600052602060002090600302016002828154811061062757610626611eb9565b5b9060005260206000209060030201600082015481600001556001820154816001015560028201548160020155905050600280548061066857610667612028565b5b6001900381819060005260206000209060030201600080820160009055600182016000905560028201600090555050905550565b6106a46113ad565b6106ae600061142b565b565b60008060009054906101000a900473ffffffffffffffffffffffffffffffffffffffff16905090565b62015180426106e89190611fc3565b600360003373ffffffffffffffffffffffffffffffffffffffff1673ffffffffffffffffffffffffffffffffffffffff168152602001908152602001600020600701540361076b576040517f08c379a0000000000000000000000000000000000000000000000000000000008152600401610762906120c9565b60405180910390fd5b6000600360003373ffffffffffffffffffffffffffffffffffffffff1673ffffffffffffffffffffffffffffffffffffffff16815260200190815260200160002060030154116107f0576040517f08c379a00000000000000000000000000000000000000000000000000000000081526004016107e790612135565b60405180910390fd5b600360003373ffffffffffffffffffffffffffffffffffffffff1673ffffffffffffffffffffffffffffffffffffffff16815260200190815260200160002060040180549050811115610878576040517f08c379a000000000000000000000000000000000000000000000000000000000815260040161086f906121a1565b60405180910390fd5b6001600360003373ffffffffffffffffffffffffffffffffffffffff1673ffffffffffffffffffffffffffffffffffffffff168152602001908152602001600020600301540361096257600360003373ffffffffffffffffffffffffffffffffffffffff1673ffffffffffffffffffffffffffffffffffffffff16815260200190815260200160002060050154600360003373ffffffffffffffffffffffffffffffffffffffff1673ffffffffffffffffffffffffffffffffffffffff168152602001908152602001600020600601600082825461095691906121c1565b92505081905550610c64565b600081600360003373ffffffffffffffffffffffffffffffffffffffff1673ffffffffffffffffffffffffffffffffffffffff16815260200190815260200160002060040180549050600360003373ffffffffffffffffffffffffffffffffffffffff1673ffffffffffffffffffffffffffffffffffffffff16815260200190815260200160002060000160010154600360003373ffffffffffffffffffffffffffffffffffffffff1673ffffffffffffffffffffffffffffffffffffffff16815260200190815260200160002060000160020154610a419190611fc3565b610a4b9190611fc3565b610a5591906121f5565b905081600360003373ffffffffffffffffffffffffffffffffffffffff1673ffffffffffffffffffffffffffffffffffffffff16815260200190815260200160002060040180549050610aa89190611ff4565b600360003373ffffffffffffffffffffffffffffffffffffffff1673ffffffffffffffffffffffffffffffffffffffff16815260200190815260200160002060040180549050600360003373ffffffffffffffffffffffffffffffffffffffff1673ffffffffffffffffffffffffffffffffffffffff16815260200190815260200160002060000160010154600360003373ffffffffffffffffffffffffffffffffffffffff1673ffffffffffffffffffffffffffffffffffffffff16815260200190815260200160002060000160020154610b849190611fc3565b610b8e9190611fc3565b610b9891906121f5565b60016000828254610ba991906121c1565b9250508190555080600360003373ffffffffffffffffffffffffffffffffffffffff1673ffffffffffffffffffffffffffffffffffffffff1681526020019081526020016000206005016000828254610c029190611ff4565b9250508190555080600360003373ffffffffffffffffffffffffffffffffffffffff1673ffffffffffffffffffffffffffffffffffffffff1681526020019081526020016000206006016000828254610c5b91906121c1565b92505081905550505b60006201518042610c759190611fc3565b9050600360003373ffffffffffffffffffffffffffffffffffffffff1673ffffffffffffffffffffffffffffffffffffffff1681526020019081526020016000206007015481610cc59190611ff4565b600360003373ffffffffffffffffffffffffffffffffffffffff1673ffffffffffffffffffffffffffffffffffffffff1681526020019081526020016000206003015410610df357600360003373ffffffffffffffffffffffffffffffffffffffff1673ffffffffffffffffffffffffffffffffffffffff1681526020019081526020016000206007015481610d5b9190611ff4565b600360003373ffffffffffffffffffffffffffffffffffffffff1673ffffffffffffffffffffffffffffffffffffffff16815260200190815260200160002060030154610da89190611ff4565b600360003373ffffffffffffffffffffffffffffffffffffffff1673ffffffffffffffffffffffffffffffffffffffff16815260200190815260200160002060030181905550610e3c565b6000600360003373ffffffffffffffffffffffffffffffffffffffff1673ffffffffffffffffffffffffffffffffffffffff168152602001908152602001600020600301819055505b6201518042610e4b9190611fc3565b600360003373ffffffffffffffffffffffffffffffffffffffff1673ffffffffffffffffffffffffffffffffffffffff168152602001908152602001600020600701819055505050565b610e9d611550565b600360008373ffffffffffffffffffffffffffffffffffffffff1673ffffffffffffffffffffffffffffffffffffffff1681526020019081526020016000206040518060c001604052908160008201604051806060016040529081600082015481526020016001820154815260200160028201548152505081526020016003820154815260200160048201805480602002602001604051908101604052809291908181526020016000905b82821015610ff4578382906000526020600020018054610f6790612266565b80601f0160208091040260200160405190810160405280929190818152602001828054610f9390612266565b8015610fe05780601f10610fb557610100808354040283529160200191610fe0565b820191906000526020600020905b815481529060010190602001808311610fc357829003601f168201915b505050505081526020019060010190610f48565b50505050815260200160058201548152602001600682015481526020016007820154815250509050919050565b60606002805480602002602001604051908101604052809291908181526020016000905b828210156110955783829060005260206000209060030201604051806060016040529081600082015481526020016001820154815260200160028201548152505081526020019060010190611045565b50505050905090565b6000600360003373ffffffffffffffffffffffffffffffffffffffff1673ffffffffffffffffffffffffffffffffffffffff1681526020019081526020016000206003015414611123576040517f08c379a000000000000000000000000000000000000000000000000000000000815260040161111a906122e3565b60405180910390fd5b6000600360003373ffffffffffffffffffffffffffffffffffffffff1673ffffffffffffffffffffffffffffffffffffffff1681526020019081526020016000206006015490506000600360003373ffffffffffffffffffffffffffffffffffffffff1673ffffffffffffffffffffffffffffffffffffffff1681526020019081526020016000206006018190555060003373ffffffffffffffffffffffffffffffffffffffff16826040516111d890612334565b60006040518083038185875af1925050503d8060008114611215576040519150601f19603f3d011682016040523d82523d6000602084013e61121a565b606091505b505090508061125e576040517f08c379a000000000000000000000000000000000000000000000000000000000815260040161125590612395565b60405180910390fd5b5050565b61126a6113ad565b60006112746106b0565b73ffffffffffffffffffffffffffffffffffffffff1660015460405161129990612334565b60006040518083038185875af1925050503d80600081146112d6576040519150601f19603f3d011682016040523d82523d6000602084013e6112db565b606091505b505090508061131f576040517f08c379a000000000000000000000000000000000000000000000000000000000815260040161131690612395565b60405180910390fd5b600060018190555050565b6113326113ad565b600073ffffffffffffffffffffffffffffffffffffffff168173ffffffffffffffffffffffffffffffffffffffff16036113a1576040517f08c379a000000000000000000000000000000000000000000000000000000000815260040161139890612427565b60405180910390fd5b6113aa8161142b565b50565b6113b56114ef565b73ffffffffffffffffffffffffffffffffffffffff166113d36106b0565b73ffffffffffffffffffffffffffffffffffffffff1614611429576040517f08c379a000000000000000000000000000000000000000000000000000000000815260040161142090612493565b60405180910390fd5b565b60008060009054906101000a900473ffffffffffffffffffffffffffffffffffffffff169050816000806101000a81548173ffffffffffffffffffffffffffffffffffffffff021916908373ffffffffffffffffffffffffffffffffffffffff1602179055508173ffffffffffffffffffffffffffffffffffffffff168173ffffffffffffffffffffffffffffffffffffffff167f8be0079c531659141344cd1fd0a4f28419497f9722a3daafe3b4186f6b6457e060405160405180910390a35050565b600033905090565b82805482825590600052602060002090810192821561153f579160200282015b8281111561153e57825182908161152e919061265f565b5091602001919060010190611517565b5b50905061154c919061158c565b5090565b6040518060c001604052806115636115b0565b815260200160008152602001606081526020016000815260200160008152602001600081525090565b5b808211156115ac57600081816115a391906115d4565b5060010161158d565b5090565b60405180606001604052806000801916815260200160008152602001600081525090565b5080546115e090612266565b6000825580601f106115f25750611611565b601f0160209004906000526020600020908101906116109190611614565b5b50565b5b8082111561162d576000816000905550600101611615565b5090565b6000604051905090565b600080fd5b600080fd5b6000819050919050565b61165881611645565b811461166357600080fd5b50565b6000813590506116758161164f565b92915050565b600080fd5b6000601f19601f8301169050919050565b7f4e487b7100000000000000000000000000000000000000000000000000000000600052604160045260246000fd5b6116c982611680565b810181811067ffffffffffffffff821117156116e8576116e7611691565b5b80604052505050565b60006116fb611631565b905061170782826116c0565b919050565b600067ffffffffffffffff82111561172757611726611691565b5b602082029050602081019050919050565b600080fd5b600080fd5b600067ffffffffffffffff82111561175d5761175c611691565b5b61176682611680565b9050602081019050919050565b82818337600083830152505050565b600061179561179084611742565b6116f1565b9050828152602081018484840111156117b1576117b061173d565b5b6117bc848285611773565b509392505050565b600082601f8301126117d9576117d861167b565b5b81356117e9848260208601611782565b91505092915050565b60006118056118008461170c565b6116f1565b9050808382526020820190506020840283018581111561182857611827611738565b5b835b8181101561186f57803567ffffffffffffffff81111561184d5761184c61167b565b5b80860161185a89826117c4565b8552602085019450505060208101905061182a565b5050509392505050565b600082601f83011261188e5761188d61167b565b5b813561189e8482602086016117f2565b91505092915050565b600080604083850312156118be576118bd61163b565b5b60006118cc85828601611666565b925050602083013567ffffffffffffffff8111156118ed576118ec611640565b5b6118f985828601611879565b9150509250929050565b6000602082840312156119195761191861163b565b5b600061192784828501611666565b91505092915050565b6000819050919050565b61194381611930565b82525050565b61195281611645565b82525050565b600060608201905061196d600083018661193a565b61197a6020830185611949565b6119876040830184611949565b949350505050565b600073ffffffffffffffffffffffffffffffffffffffff82169050919050565b60006119ba8261198f565b9050919050565b6119ca816119af565b81146119d557600080fd5b50565b6000813590506119e7816119c1565b92915050565b600060208284031215611a0357611a0261163b565b5b6000611a11848285016119d8565b91505092915050565b611a2381611930565b82525050565b611a3281611645565b82525050565b606082016000820151611a4e6000850182611a1a565b506020820151611a616020850182611a29565b506040820151611a746040850182611a29565b50505050565b600060e082019050611a8f6000830188611a38565b611a9c6060830187611949565b611aa96080830186611949565b611ab660a0830185611949565b611ac360c0830184611949565b9695505050505050565b600080fd5b611adb81611930565b8114611ae657600080fd5b50565b600081359050611af881611ad2565b92915050565b600060608284031215611b1457611b13611acd565b5b611b1e60606116f1565b90506000611b2e84828501611ae9565b6000830152506020611b4284828501611666565b6020830152506040611b5684828501611666565b60408301525092915050565b600060608284031215611b7857611b7761163b565b5b6000611b8684828501611afe565b91505092915050565b611b98816119af565b82525050565b6000602082019050611bb36000830184611b8f565b92915050565b606082016000820151611bcf6000850182611a1a565b506020820151611be26020850182611a29565b506040820151611bf56040850182611a29565b50505050565b600081519050919050565b600082825260208201905092915050565b6000819050602082019050919050565b600081519050919050565b600082825260208201905092915050565b60005b83811015611c61578082015181840152602081019050611c46565b60008484015250505050565b6000611c7882611c27565b611c828185611c32565b9350611c92818560208601611c43565b611c9b81611680565b840191505092915050565b6000611cb28383611c6d565b905092915050565b6000602082019050919050565b6000611cd282611bfb565b611cdc8185611c06565b935083602082028501611cee85611c17565b8060005b85811015611d2a5784840389528151611d0b8582611ca6565b9450611d1683611cba565b925060208a01995050600181019050611cf2565b50829750879550505050505092915050565b600061010083016000830151611d556000860182611bb9565b506020830151611d686060860182611a29565b5060408301518482036080860152611d808282611cc7565b9150506060830151611d9560a0860182611a29565b506080830151611da860c0860182611a29565b5060a0830151611dbb60e0860182611a29565b508091505092915050565b60006020820190508181036000830152611de08184611d3c565b905092915050565b600081519050919050565b600082825260208201905092915050565b6000819050602082019050919050565b6000611e208383611bb9565b60608301905092915050565b6000602082019050919050565b6000611e4482611de8565b611e4e8185611df3565b9350611e5983611e04565b8060005b83811015611e8a578151611e718882611e14565b9750611e7c83611e2c565b925050600181019050611e5d565b5085935050505092915050565b60006020820190508181036000830152611eb18184611e39565b905092915050565b7f4e487b7100000000000000000000000000000000000000000000000000000000600052603260045260246000fd5b600082825260208201905092915050565b7f496e636f727265637420616d6f756e74206f6620746f6b656e732073656e7400600082015250565b6000611f2f601f83611ee8565b9150611f3a82611ef9565b602082019050919050565b60006020820190508181036000830152611f5e81611f22565b9050919050565b7f4e487b7100000000000000000000000000000000000000000000000000000000600052601260045260246000fd5b7f4e487b7100000000000000000000000000000000000000000000000000000000600052601160045260246000fd5b6000611fce82611645565b9150611fd983611645565b925082611fe957611fe8611f65565b5b828204905092915050565b6000611fff82611645565b915061200a83611645565b925082820390508181111561202257612021611f94565b5b92915050565b7f4e487b7100000000000000000000000000000000000000000000000000000000600052603160045260246000fd5b7f596f752063616e206f6e6c79206d61726b20646f6e65206f6e6365207065722060008201527f6461790000000000000000000000000000000000000000000000000000000000602082015250565b60006120b3602383611ee8565b91506120be82612057565b604082019050919050565b600060208201905081810360008301526120e2816120a6565b9050919050565b7f546869732063616d706169676e2068617320656e646564000000000000000000600082015250565b600061211f601783611ee8565b915061212a826120e9565b602082019050919050565b6000602082019050818103600083015261214e81612112565b9050919050565b7f496e76616c6964206e6f4f66486162697473446f6e65546f6461790000000000600082015250565b600061218b601b83611ee8565b915061219682612155565b602082019050919050565b600060208201905081810360008301526121ba8161217e565b9050919050565b60006121cc82611645565b91506121d783611645565b92508282019050808211156121ef576121ee611f94565b5b92915050565b600061220082611645565b915061220b83611645565b925082820261221981611645565b915082820484148315176122305761222f611f94565b5b5092915050565b7f4e487b7100000000000000000000000000000000000000000000000000000000600052602260045260246000fd5b6000600282049050600182168061227e57607f821691505b60208210810361229157612290612237565b5b50919050565b7f596f752063616e6e6f74207769746864726177207269676874206e6f77000000600082015250565b60006122cd601d83611ee8565b91506122d882612297565b602082019050919050565b600060208201905081810360008301526122fc816122c0565b9050919050565b600081905092915050565b50565b600061231e600083612303565b91506123298261230e565b600082019050919050565b600061233f82612311565b9150819050919050565b7f4661696c656420746f2073656e64204574686572000000000000000000000000600082015250565b600061237f601483611ee8565b915061238a82612349565b602082019050919050565b600060208201905081810360008301526123ae81612372565b9050919050565b7f4f776e61626c653a206e6577206f776e657220697320746865207a65726f206160008201527f6464726573730000000000000000000000000000000000000000000000000000602082015250565b6000612411602683611ee8565b915061241c826123b5565b604082019050919050565b6000602082019050818103600083015261244081612404565b9050919050565b7f4f776e61626c653a2063616c6c6572206973206e6f7420746865206f776e6572600082015250565b600061247d602083611ee8565b915061248882612447565b602082019050919050565b600060208201905081810360008301526124ac81612470565b9050919050565b60008190508160005260206000209050919050565b60006020601f8301049050919050565b600082821b905092915050565b6000600883026125157fffffffffffffffffffffffffffffffffffffffffffffffffffffffffffffffff826124d8565b61251f86836124d8565b95508019841693508086168417925050509392505050565b6000819050919050565b600061255c61255761255284611645565b612537565b611645565b9050919050565b6000819050919050565b61257683612541565b61258a61258282612563565b8484546124e5565b825550505050565b600090565b61259f612592565b6125aa81848461256d565b505050565b5b818110156125ce576125c3600082612597565b6001810190506125b0565b5050565b601f821115612613576125e4816124b3565b6125ed846124c8565b810160208510156125fc578190505b612610612608856124c8565b8301826125af565b50505b505050565b600082821c905092915050565b600061263660001984600802612618565b1980831691505092915050565b600061264f8383612625565b9150826002028217905092915050565b61266882611c27565b67ffffffffffffffff81111561268157612680611691565b5b61268b8254612266565b6126968282856125d2565b600060209050601f8311600181146126c957600084156126b7578287015190505b6126c18582612643565b865550612729565b601f1984166126d7866124b3565b60005b828110156126ff578489015182556001820191506020850194506020810190506126da565b8683101561271c5784890151612718601f891682612625565b8355505b6001600288020188555050505b50505050505056fea264697066735822122001a3e1d0f9baabf1418c7ba6bfccf9eae070587299f567f07e54471446adbf1c64736f6c63430008110033",
  "linkReferences": {},
  "deployedLinkReferences": {}
}